:020000040007F3
:1020000000000120B5220700DD220700DF220700C3
:10201000E1220700E3220700E5220700000000009C
:1020200000000000000000000000000091360700E2
:10203000E922070000000000EB220700ED22070064
:10204000EF220700EF220700EF220700EF22070030
:10205000EF220700EF220700EF220700EF22070020
:10206000EF220700EF220700EF220700EF22070010
:10207000EF220700EF220700EF220700EF22070000
:10208000F1410700EF220700EF220700EF220700CF
:10209000EF220700EF220700C1670700EF220700C9
:1020A000EF220700EF220700EF220700EF220700D0
:1020B000EF220700EF2207000000000000000000F0
:1020C000EF220700EF220700EF220700EF220700B0
:1020D000213E0700EF220700EF220700000000006A
:1020E00000000000000000000000000000000000F0
:1020F00000000000000000000000000000000000E0
:1021000000000000000000000000000000000000CF
:1021100000000000000000000000000000000000BF
:1021200000000000000000000000000000000000AF
:10213000000000000000000000000000000000009F
:10214000000000000000000000000000000000008F
:10215000000000000000000000000000000000007F
:10216000000000000000000000000000000000006F
:10217000000000000000000000000000000000005F
:10218000000000000000000000000000000000004F
:10219000000000000000000000000000000000003F
:1021A000000000000000000000000000000000002F
:1021B000000000000000000000000000000000001F
:1021C000000000000000000000000000000000000F
:1021D00000000000000000000000000000000000FF
:1021E00000000000000000000000000000000000EF
:1021F00000000000000000000000000000000000DF
:1022000010B5054C237833B9044B13B10448AFF330
:1022100000800123237010BD1C5A00200000000024
:10222000AC84070008B5034B1BB103490348AFF367
:10223000008008BD00000000205A0020AC84070088
:10224000154B002B08BF134B9D46A3F5803A002188
:102250008B460F461348144A121A05F0A3FB0F4B86
:10226000002B00D098470E4B002B00D09847002041
:10227000002104000D000D48002802D00C48AFF3E7
:10228000008005F04FFB2000290001F073FB05F0F2
:1022900035FB00BF00000800000001200000000026
:1022A000000000001C5A0020E87F00200000000011
:1022B000000000000649074A074B9B1A03DD043B58
:1022C000C858D050FBDC00F04DF8FFF7B9FF000014
:1022D00010850700685900201C5A0020FEE7FEE721
:1022E000FEE7FEE7FEE7FEE7FEE7FEE7FEE7FEE7C6
:1022F0000C4B1B78062B10D10B4B1B681A070CD10B
:102300000A4B186800F0F003302B08D000F0E00012
:10231000A0F1400358425841704700207047012007
:10232000704700BFE00F00F0E40F00F0E80F00F08E
:10233000094B1B78062B0CD1084B1B681A0708D1D8
:10234000074B186800F0F000A0F1300358425841E4
:1023500070470020704700BFE00F00F0E40F00F06E
:10236000E80F00F008B5FFF7C3FF28B17D4B7E4AA8
:102370001B68C3F304231360FFF7DAFF10B17B4B34
:102380007B4A1A60FFF7B4FF28B17A4B7A4A1B6880
:10239000C3F342331360FFF7CBFF20B1774AD36812
:1023A00023F08073D360FFF7A3FF40B14FF0804369
:1023B0000022C3F80C21C3F81021C3F83825FFF719
:1023C000B7FF10B16E4B03221A60FFF7B1FF40B1A7
:1023D0006C4B05221A6001229A6700229A603F2204
:1023E0005A60694B1B78062B50D1684B1B68190744
:1023F0004CD1674B1B6803F0F003502B46D14FF0D4
:102400008052644BD2F80414C3F82015D2F8081493
:10241000C3F82415D2F80C14C3F82815D2F81014F8
:10242000C3F82C15D2F81414C3F83015D2F81814C8
:10243000C3F83415D2F81C14C3F84015D2F8201490
:10244000C3F84415D2F82414C3F84815D2F8281458
:10245000C3F84C15D2F82C14C3F85015D2F8301428
:10246000C3F85415D2F83414C3F86015D2F83814F0
:10247000C3F86415D2F83C14C3F86815D2F84014B8
:10248000C3F86C15D2F84424C3F87025FFF730FF69
:1024900028B1414B414A1B6803F04F031360FFF71B
:1024A00027FF48B14FF08043D3F80024D20744BF40
:1024B0006FF00102C3F80024394B1B68062B08D1CA
:1024C000384B1B68062B01BF374A136843F48063FF
:1024D0001360364AD2F8883043F47003C2F888306B
:1024E000BFF34F8FBFF36F8F4FF01023D3F800224D
:1024F000002A03DBD3F80432002B2FDA2C4B012205
:10250000C3F80425D3F80024002AFBD04FF0102292
:102510001521C2F80012D3F80024002AFBD04FF096
:1025200010231522C3F80422214B1A46D3F80014B5
:102530000029FBD00021C3F80415D2F80034002B89
:10254000FBD0BFF34F8F19491A4BCA6802F4E062FF
:102550001343CB60BFF34F8F00BFFDE7164B174A05
:102560001A6008BD240300104035014074C00740C4
:102570000DF0ADBA440200103C050040F0ED00E063
:10258000A005004010560040E00F00F0E40F00F0FE
:10259000E80F00F000C0004058020010E40E0040B8
:1025A00030010010340100103C17004000ED00E045
:1025B00000E001400400FA05685900200090D003B3
:1025C0004B1C30B5DB00044612F003009BB20DD16A
:1025D000074D2A601A44074B1A60074B1870074BC7
:1025E0001870074B1C80074B198030BD0720FCE793
:1025F000405A00203C5A0020385A0020485A0020F7
:10260000445A0020465A00202DE9F3472B4D2B88D1
:102610008B4206460C4617464CD34FF000080DF18E
:1026200007008DF8078000F095F8254B254A1878AB
:102630001178CBB2244909888B4238BF0133C0B22C
:1026400038BF5FFA83F840452ED092F800801378A7
:10265000DBB2994286BF0133DBB2002313709DF8D1
:10266000070000F0A7F84FF6FF73984524D0DFF875
:1026700060A0DAF800304FEAC80903EB090243F81A
:102680003870A6B19CB1114B28881B68224608FB04
:102690000030314605F078F9DAF800304B4400207C
:1026A0009C8002B0BDE8F0874FF6FF78D7E70020A6
:1026B0009080F6E70920F4E70420F2E7445A00206E
:1026C000485A0020385A0020465A00203C5A002020
:1026D000405A0020F8B5124C124D264622782B782D
:1026E0009A4200D1F8BD23780F48104A0788126833
:1026F0000F48DBB219B202EBC10C006852F831206E
:10270000BCF8041003FB070090470A4A237812889C
:10271000DBB29A4286BF0133DBB200233370DDE7C0
:10272000485A0020385A0020445A0020405A0020BD
:102730003C5A0020465A0020EFF30583C3F30803F8
:102740002BB9EFF31480C04300F001007047012063
:102750007047000070B50446FFF7EEFF012803D074
:102760001049432000F062F8EFF3108672B60E4A6B
:102770009068012398B993600C4B0D4DD3F88010ED
:1027800029401160C3F88050D3F8841051604FF095
:10279000FF32C3F88420207006B962B670BD237082
:1027A000FAE700BFE07907005C7C002000E100E070
:1027B000FC06FFBD10B50446FFF7BEFF012803D09D
:1027C0000949512000F032F8084B9A685AB154B9BF
:1027D000EFF3108172B6064A1868106058685060AE
:1027E0009C6001B962B610BDE07907005C7C0020F6
:1027F00000E100E030B53AB11368DB430A4D014413
:10280000814204D1D84330BD4FF0FF33F6E710F8D2
:10281000012B5340082213F0010418BF2C46013A43
:1028200084EA5303F7D1EBE72083B8ED07B5ADF8A1
:10283000000001916A46002144F2020001F093F881
:1028400003B05DF804FB10B561B1B2FBF3F403FB18
:102850001424A4B244B9C0E9001484608281C38105
:10286000204610BD0E20FCE70920FAE782B050E8B0
:10287000022FC188B2EB324F4FF0000317BF92B264
:1028800041EA014142EA014104E04268B2EB324FC1
:1028900008BF012340E80212002AE8D18DF8073072
:1028A0009DF80730002B0CBF1120002002B07047AC
:1028B00037B550E8013F9DB2C48925448489A542BB
:1028C00028BF2D1B0489A54202BFBFF32F8F002212
:1028D00007E0C5EA030540E80154002CE9D14FF0B8
:1028E00001028DF803200193019B9DF803200B60EA
:1028F00002F0FF0322B10B880068184403B030BD1A
:102900001846FBE70A884B889A4209D150E8012F04
:10291000C2EA024240E80123002BF7D101207047B0
:102920000020704737B550E8023F1FFAA3F5C4886E
:10293000A54202BFBFF32F8F00220DE0C4892544BA
:102940008489A54228BF2D1BC3EA054540E80254EF
:10295000002CE8D14FF001028DF803200193019B78
:102960009DF803200B6002F0FF0322B14B88006842
:10297000184403B030BD1846FBE70A884B889A42DA
:1029800009D150E8022FC2EA224240E80223002B7C
:10299000F7D1012070470020704750E8002F42EA2D
:1029A000010340E8003C9CF0000FF6D11046704750
:1029B00050E8003F03EA010240E8002C9CF0000FC1
:1029C000F6D1104670470121FFF7E7BF0021FFF75E
:1029D000EFBF000010B50446002834D003681BB9CF
:1029E0001A49FF20FFF722FF636823B917494FF404
:1029F0008070FFF71BFFA36823B9144940F2011050
:102A0000FFF714FFE36823B910494FF48170FFF713
:102A10000DFF238A23B90D4940F20310FFF706FF8B
:102A2000D4E9012321689B1ADBB20A60013BDBB2C7
:102A3000FF2B226802D10020107110BD1168481CC4
:102A400010600B70F2E70E20F7E700BF347A070042
:102A500037B5054620B914494FF49270FFF7E6FEEA
:102A600000240DF107008DF80740FFF773FE2A6878
:102A7000696813688B4210D9591E116013F8014C14
:102A80002A8AEB6802FB04342A68AB6811685B1A77
:102A90001179DBB2994238BF13719DF80700FFF737
:102AA00089FE204603B030BD347A070037B50C46A6
:102AB000054620B9104940F24710FFF7B7FE24B988
:102AC0000D494FF4A470FFF7B1FE00230DF107008C
:102AD0008DF80730FFF73EFE2A681368591C116015
:102AE000EA68A41A2A8AB4FBF2F41C709DF8070065
:102AF000FFF760FE03B030BD347A070070B50D46B5
:102B00001646044618B908495520FFF78FFE1DB92F
:102B100005495620FFF78AFE25602B68314620467E
:102B2000BDE87040184700BF837A07002DE9F041E7
:102B3000DDF818800E4617461D46044618B922498E
:102B40008820FFF773FE1FB91F498920FFF76EFE2B
:102B500023681BB91C498A20FFF768FE45BB1A4948
:102B60008B20FFF763FEB20703D017499120FFF7D0
:102B70005DFEBB0703D014499220FFF757FEE368C0
:102B80009E4204D3731E22692B44934203D90E49FB
:102B90009320FFF74BFE2368CDF81880D3F80CE0A4
:102BA0003A462B4631462046F446BDE8F0416047A0
:102BB00063685A68B5FBF2F302FB1353002BD2D0C3
:102BC00001498E20CDE700BF837A07002DE9F0414F
:102BD0000D4616461F46044618B919499E20FFF7B0
:102BE00025FE23681BB916499F20FFF71FFE1EB95B
:102BF0001349A020FFF71AFE63681B68013B2B42B4
:102C000003D00F49A320FFF711FEE3689D4207D3CD
:102C100063681B686A1E03FB06232269934203D97B
:102C20000749A820FFF702FE2368D3F810E03246D8
:102C30003B4629462046F446BDE8F041604700BFC8
:102C4000837A070070B508B10368ABB90C4D0D4C21
:102C50000026641B1423B4FBF3F4B44201D100201A
:102C600009E02B6813B901361435F6E7DB6928460D
:102C700098470028F7D070BDDB69BDE87040184761
:102C8000085A00201C5A0020014B43600020704766
:102C9000D87A07000846704700207047024B186832
:102CA000003018BF012070474C5A002008B5024878
:102CB000FFF78CFE002008BD4C5A002008B51046D6
:102CC0001A4604F061FE002008BD00002DE9F04323
:102CD000814687B014480F4616469846FFF773FEA4
:102CE0000446F0B90546AE4215D10F48FFF76EFE17
:102CF000D9F808305BB102228DF800200022CDE91E
:102D00000127CDE90326CDF8148068469847204670
:102D100007B0BDE8F08307EB053000F067FB013535
:102D2000E1E71124F3E700BF4C5A00202DE9F04100
:102D3000804686B011480F4616461D46FFF743FEF3
:102D40000446C8B9AA083146384600F07DFB0B4856
:102D5000FFF73CFED8F8083053B101228DF800206F
:102D60000C9A0592CDE90147CDE90365684698477D
:102D7000204606B0BDE8F0811124F9E74C5A002046
:102D800029DF704728DF704770B50568AB6886B0EB
:102D900004460E4673B114220021684604F002FE78
:102DA000A36805932379019633B1012B0ED0AB684C
:102DB0006846984706B070BD01238DF8003023693E
:102DC0000293E368039363690493F0E702238DF8A9
:102DD0000030E3681B030293F5E7084670470020C4
:102DE00070470000024B187A003018BF012070476E
:102DF0003C5C0020034B187A0122B0FA80F05A7430
:102E0000400970473C5C002008B510461A4604F0A3
:102E1000BBFD002008BD000008B5142200210448B5
:102E200004F0C0FD0348FFF721FD002008BD00BFEE
:102E30003C5C00202C5C002010B5094C094B436021
:102E40002046FFF7C0FD48B903F0A0FC1C23207406
:102E50004FF4EE7204490548FFF7F5FC002010BD61
:102E60003C5C0020047B0700505A00202C5C0020B2
:102E700070B5234C234E237A25463BB9224923487B
:102E8000FFF750FD306008B9606070BD0223346800
:102E90002B72237973B1012B22D020460321FFF737
:102EA00073FF00232B726B6017491848BDE8704010
:102EB000FFF763BDD4E90523D21A142A28BF1422D0
:102EC000D4E903109208012A38BF0122194418449A
:102ED000FFF756FF50B11128DFD101232B72D4E741
:102EE000D4E903031844FFF74DFFF3E72B7C002BD5
:102EF000CBD10146BDE87040022000F009B800BF08
:102F00003C5C0020545C0020505C00202C5C0020C5
:102F100038B5831E012B43D8224C237A002B3FD097
:102F2000022B09D103282ED01F4B00221B68E26020
:102F30001A793AB1012A20D0637C6BBBBDE83840D6
:102F4000FFF796BFD3E905128D1A142D94BF5219BD
:102F500014329A619142EFD102284FF0000308BF6A
:102F600019462372104B18BF0D211868FFF70CFF8C
:102F70000E490F48FFF701FDDEE71A6901321A61B9
:102F80005B699A42E7E7E3680133082B01D8E36005
:102F9000D2E70023E360DFE7BDE8384003F0E6BB9B
:102FA00038BD00BF3C5C0020545C0020505C002019
:102FB0002C5C002000F0FD03012B08D1044B002203
:102FC0005A74421E504250411874FFF751BF704767
:102FD0003C5C002010B5064C201DFFF7F4FC28B91E
:102FE000637C1BB9BDE81040FFF742BF10BD00BFB6
:102FF0003C5C00202DE9F34180460D460F4801A9B5
:1030000016461F46FFF754FC0446A8B11C220021B7
:1030100004F0C8FC2D0B0123237101A9C4F8008022
:10302000A760E56066610548FFF76CFCFFF7D2FF1B
:10303000002002B0BDE8F0810420FAE72C5C0020FB
:103040002DE9F74381468846104801A917461E46D8
:10305000FFF72EFC0446B0B11C22002104F0A2FCB4
:1030600000250A9BA36001A92571C4F80090C4E95A
:10307000037866610548FFF745FCFFF7ABFF28467C
:1030800003B0BDE8F0830420FAE700BF2C5C002009
:1030900038B50D46044618B908495020FFF7C6FB5D
:1030A0001DB906495120FFF7C1FB25602B686360FD
:1030B0006A68934204BF0023636038BD307B070019
:1030C00010B5044618B90B496320FFF7AFFB23681E
:1030D0001BB908496420FFF7A9FB636843B1226864
:1030E00091680B4463605268934204BF002363609D
:1030F00010BD00BF307B07002DE9F04FC9B008AA12
:1031000001F1400514464B780E781B0443EA066330
:10311000CE7833438E78043143EA06238D4244F857
:10312000043BF0D11024916B16464FEAF14383EA39
:10313000714383EA9123716A366852F8045F31441F
:103140000B444FEAB54181EAF51181EAD50101341A
:103150000B44402CD363E6D1D0E914E30093836D94
:103160000193C36D0293036E0393436E0493836EC6
:103170000593C36E0693DDE9057BDDE9031CDDE9FC
:1031800001592B4B009E079374464FF00008079B94
:1031900053F8042B07934FEAF12383EAB11383EA30
:1031A000716A08AB53F828301A440AEB020327EA85
:1031B000010A01EA0C028AEA02021A444FEA743A4E
:1031C00086EA05035A448AEAB40A06EA050B234054
:1031D00083EA0B038AEAB45A08F101089A44B8F169
:1031E000400F02EB0903BB465244A94619D1724471
:1031F0000265009A22444265019A32448265029A2D
:103200002A44C265039A1A44049B02660B4443662F
:10321000059B63448366069B3B44C36649B0BDE897
:10322000F08F674635468C46264619461446AEE76B
:10323000987B070030B5E0B10F4A10490024002503
:10324000C0E91245C0E914120D4C0E4A0E4DC0E9FA
:1032500016420E4AC0E918520D4A826602F17452B3
:10326000A2F523020023A2F692420364C266184626
:1032700030BD0E20FCE700BF85AE67BB67E6096A7C
:1032800072F36E3C3AF54FA57F520E518C68059B48
:10329000ABD9831FF8B50446F0B10AB90020F8BDD8
:1032A000D1B10D468E180027B542F7D0236C15F822
:1032B000012BE2540133402B2364F5D121462046F3
:1032C000FFF71AFFD4E9123113F5007341F1000141
:1032D000C4E912312764E7E70E20E0E770B50D4638
:1032E00016460446002877D0002975D0026C80214C
:1032F000372A02F1010381544FF0000242D8382BE3
:103300003BD1D4E91223206C0821E1FB00231046B5
:1033100012BAE2631A0A194684F83B3084F83A205C
:103320001A0C1B0EC4E9120184F83920214684F8D6
:1033300038302046FFF7E0FE691E76B30023E26EC8
:10334000DA4001F8012FA26EDA400A71626EDA40AB
:103350000A72226EDA400A73E26DDA400A74A26DD4
:10336000DA400A75626DDA400A76226DDA40083377
:10337000202B0A77E3D1002070BDE2540133BEE771
:10338000E25401333F2BFBD921462046FFF7B4FE20
:103390003822002104F006FBB3E71823226DDA403F
:1033A00001F8012F626DDA400A71A26DDA400A72EB
:1033B000E26DDA400A73226EDA400A74626EDA4015
:1033C0000A75A26EDA400A76E26EDA40083B13F123
:1033D000080F0A77E2D1CEE70E20CDE7024AD2F8F5
:1033E0000034002BFBD0704700E001400A4908B5CB
:1033F0000223C1F80435BFF36F8FBFF34F8FC1F8BD
:103400000805FFF7EBFF0023C1F80435BFF36F8F0A
:10341000BFF34F8F08BD00BF00E0014010B5094C5D
:103420000123C4F80435BFF36F8FBFF34F8F0160E2
:10343000FFF7D4FF0023C4F80435BFF36F8FBFF349
:103440004F8F10BD00E001400E4B10B50124C3F8B2
:103450000445BFF36F8FBFF34F8F01EB8204401A17
:10346000A14208D1074B0022C3F80425BFF36F8F98
:10347000BFF34F8F10BD431851F8042B1A60FFF7AC
:10348000ADFFEDE700E0014043689B68184708B5D1
:10349000436808305A7900F01FFA002008BD2DE972
:1034A000F0430D469BB0084699469046FFF7ECFF67
:1034B0006E6874794C4528BF4C4607462246414603
:1034C00002A800F0EDF9727922990AA800F004FA36
:1034D00000970AAB224602A905F1080004F0A6F8FD
:1034E000002848F2425018BF00201BB0BDE8F0830E
:1034F000024940F2CD10FFF799B900BFE97C0700FF
:10350000032810B5044603D908494120FFF78EF976
:10351000074B1C5D1F2C01D9FFF7EAFF01234FF079
:10352000A042A340C2F80C3510BD00BFA47C070028
:10353000E57C0700032810B5044603D90849472055
:10354000FFF774F9074B1C5D1F2C01D9FFF7D0FF63
:1035500001234FF0A042A340C2F8083510BD00BFC0
:10356000A47C0700E57C070008B50020FFF7E2FF18
:103570000120FFF7DFFF0220FFF7DCFF0320BDE89B
:103580000840FFF7D7BFC20710B504460CD54FF06F
:10359000A0430322C3F86027C3F85C27C3F8582769
:1035A000C3F86427FFF7E0FFA30706D5FFF7A0FFE6
:1035B0004FF0A0430C22C3F8FC2710BD38B1054BD7
:1035C0000360054B436001230372002070470E2007
:1035D000704700BF03360700DD35070069B10B787F
:1035E000022B0CD1022804D003280CBF1120082084
:1035F000704703230B70002070470E20704708208F
:10360000704710B50C4681B10B78042B04D8DFE865
:1036100003F00E05030E0E00112010BD02F044FA57
:103620000028FAD102232370F7E70E20F5E70820DF
:10363000F3E7000070B5144B144A0C21D21AB2FB08
:10364000F1F2816911F8025C044635B90069002184
:10365000914205D1012323600EE04FF0FF30F6E7E1
:103660001E68AE420CD1461C07D19D68D4E900010A
:10367000D4E90223A847206070BD5E688642F4D07A
:1036800001310C33E4E700BFB8840700C4840700AD
:103690001EF0040F0CBFEFF30880EFF30980FFF773
:1036A000C9BF00BF28B139B10023C1E900301846B5
:1036B000704748F21050704748F21350704730B1CD
:1036C000036848F240508B4208BF0020704748F220
:1036D0001050704728B148F21150914208BF0020A5
:1036E000704748F21050704770B506460C461D46AC
:1036F000FFF7D8FF50B9B3794AB1AB420AD11146AE
:103700002046FFF7C4FE08B9044B236070BD48F2A1
:103710001050FBE748F21150F8E700BF7052464DD9
:103720002DE9F0470C4607460F49204615469846B6
:10373000DDE90869FFF7C3FF98B963685A7949461C
:1037400052003046FFF7C6FF58B945B108964346C8
:103750002A4621463846BDE8F047FFF7A0BE48F2AA
:103760001050BDE8F08700BF7052464D10B50446BA
:1037700038B149B141600B68984708B9044B2360E0
:1037800010BD48F20150FBE748F21050F8E700BFC7
:103790006E524648F0B4134648B10768094EB74226
:1037A0000AD161B12AB14368F0BC5B68184748F29E
:1037B00001531846F0BC704748F20253F9E748F24B
:1037C0001053F6E76E524648F0B460B107680C4EED
:1037D000B7420CD171B143681568DC68A5420CD3BF
:1037E0009B68F0BC184748F20150F0BC704748F2A3
:1037F0000250FAE748F21350F7E748F21450F4E7A2
:103800006E5246482DE9F041044617469846DDE9D8
:103810000656FFF7ABFF60B9424639462046FFF730
:10382000B9FF30B9324629462046BDE8F041FFF7DE
:10383000CBBFBDE8F0810000F8B50A4F0A4C0B4D34
:10384000E41B0121E40829700026A64203D10223CB
:103850002B700020F8BD57F8363098470028F9D172
:103860000136F2E7B0840700B0840700585C0020FE
:1038700038B50D46044618B908493320FEF7D6FF7F
:10388000691E21442046814200D238BD03780A785F
:1038900000F8012B01F80139F5E700BF2B7D070087
:1038A00070B50D461446064618B90A494520FEF77C
:1038B000BDFF1DB907494620FEF7B8FF621E32441E
:1038C000013DB24200D270BD15F8013F02F8013946
:1038D000F7E700BF2B7D070070B5164604460D467E
:1038E000FFF7DEFF3246A919A019BDE87040FFF7C7
:1038F000D7BF38B50D460446FFF7BAFF2946601911
:10390000BDE83840FFF7B4BF084B1B68DB0700D5A4
:1039100000BEBFF34F8F0649064BCA6802F4E0624F
:103920001343CB60BFF34F8F00BFFDE7F0ED00E026
:1039300000ED00E00400FA0508B5072812D8DFE81A
:1039400000F0040C1111110411040120FFF71BFEFB
:103950000020BDE80840FFF7D3BD0020FFF7EAFDD7
:103960000220F6E708BD08B5FFF7CEFF08B5FFF760
:10397000CBFF000008B500F007FC002210464FF412
:10398000805100F053F9024608B1FFF7BDFF05482A
:10399000C0F5FC2100F04AF90028F6D1024800F0F9
:1039A00055F8F2E7002007003939070041DF70477A
:1039B000014B01221A7070477C600020BFF34F8FCB
:1039C0000549064BCA6802F4E0621343CB60BFF3BB
:1039D0004F8F00BFFDE700BF00ED00E00400FA05D7
:1039E000024B034800221A7002F038B87C600020B5
:1039F000BD390700831E10B50446052B09D8DFE842
:103A000003F0160303080F0F0B494FF4701000F07A
:103A100065FA0A4B1B686BB12046BDE81040184799
:103A2000074B084800221A7002F018F8F1E701F07D
:103A300053FFEEE710BD00BFE139070080600020B2
:103A40007C600020BD3907000020704738B5604B0E
:103A5000604A18604FF0A0430020C3F87C2702F0B2
:103A600013F8044648B900F02BFB012800F0A680AB
:103A700041B221B1022800F0A780032038BD4FF0E9
:103A80008043D3F8004414F4803440D04FF48032A3
:103A9000C3F800240C46504D2B6A012B4AD04FF43A
:103AA000701400F0B1FB4D4A20211820FEF788FD6C
:103AB00008B1FFF75BFF4A4B1A6802F0F802B02A20
:103AC00006D11A68D20742BF1A6802F04E021A6085
:103AD000414B9A6D012A06D10020986501F07CFFC8
:103AE00008B1FFF743FFFFF7AFFF0028C5D120461D
:103AF0003C4900F0F3F93C4801F09AF80028BCD1A9
:103B000000F0A8FBFEF7E6FDFFF750FFF8E7D3F85B
:103B1000202502F0F802A82A0AD1D3F82025D107DF
:103B200006D5D3F8202502F05602C3F82025B2E7C7
:103B30000124B0E743F204031A682C4B9A4209D0DF
:103B400002F03EF8AA69014694B1294802F054FBFC
:103B500090B9A4E76A6B1CB995F86032012BEFD0DD
:103B60004FF48051234802F047FB0028E8D196E744
:103B700095F8A132012BE8D14FF0A043D3F81035CE
:103B8000002B8CDA164B1B6813F0B10F87D1AB6D8D
:103B9000012B84D001F0C0FF00287FF46EAF164CDB
:103BA0002070164801F05AFF237823B914494FF4C6
:103BB0000170FEF73BFE00F027F85EE70E4B114860
:103BC0001C7001F04BFF58E74FF4A02469E700BFD9
:103BD000806000200C000300687C00205C5C0020FA
:103BE0001C050040E1390700F5390700DBE5B1515C
:103BF000097F0020C87E00207C600020B1390700CA
:103C0000C47D0700BD39070008B5074B4FF0FF32F0
:103C1000C3F88020C3F8802101F066FC4FF4805087
:103C2000BDE8084000F02EB800E100E00346C1F313
:103C30000B0070B520BBB3F5FE2F21D81B0B01394B
:103C400003EB113101264FF08044994200D270BD40
:103C500003F01F025D0906FA02F2032D05D8DFE822
:103C600005F00206090CC4F800260133EDE7C4F89C
:103C70000426FAE7C4F81026F7E7C4F81426F4E798
:103C80000720E4E738B504461A480022C0F5FE21B3
:103C9000FFF7CCFF08B1FFF769FE01F091FF164B6B
:103CA000996901F6FF7121F47F6121F00F01002273
:103CB00001441046FFF7BAFF08B1FFF757FEEFF3D4
:103CC00005820023D4E9005483F3148883F3108819
:103CD00083F3118883F31388C2F308021AB10749EA
:103CE0006E20FEF7A3FD85F308884FF0FF339E4654
:103CF000204738BD00200700687C00201B7E07009D
:103D0000B1F1807F73B506460C4639D31F498F2029
:103D1000FEF78CFD6FF07F431D4AA34228BF234668
:103D2000D2F80455E41A1D44631E942B96BF9634B2
:103D300074607460347B25F07F4598BF963D032CFA
:103D400003D912497720FEF771FD114E04F5A873CF
:103D50004FF4F86046F823500E4B43F001039847A8
:103D60000D4BA200134400221A601B680193019BB3
:103D70004FF4803303FA04F4C6F8044302B070BD74
:103D80009529C7D801499020C2E700BF967E070059
:103D900000400240907E07004041024018490A78E6
:103DA00084B0002A29D14FF08043A020D3F81834E2
:103DB000DB035EBF134B01221A60134A002313601A
:103DC00012680392039A114A136012680292029ACF
:103DD0000F4A136012680192019A0E4A82F8240376
:103DE000102050600C4A0D48C2F8083501230360CA
:103DF00002201360C2F804030B7004B0704700BFC8
:103E0000886000200800004000410240404102401C
:103E10004441024000E100E000400240084002400E
:103E200013B5284B1A6842B127490A6801320A6063
:103E300000221A601B680093009B244B1A68A2B1F1
:103E400000221A6022481B68027B0193019B4FF4F9
:103E5000803393401F4AC2F808334168044601BBCF
:103E60008168D9B9236803B198471B4B1A6832B3EC
:103E700000221A6016481B68027F0193019B4FF4D1
:103E800080339340134AC2F808334169044659B15C
:103E9000103002B0BDE81040FFF732BFFFF730FF2F
:103EA000E0E7FFF72DFFE0E7816911B11030FFF780
:103EB00027FF23691BB102B0BDE81040184702B0CC
:103EC00010BD00BF04410240846000204041024018
:103ED0006C590020004002404441024070B50B4B39
:103EE0001C68227B4FF480339340094A0E46C2F887
:103EF0000833054640B1FFF751FF266029462046AA
:103F0000BDE87040FFF7FCBE70BD00BF8C590020BB
:103F10000040024070B5074B1C680E46A060054685
:103F2000FFF73CFF266029462046BDE87040FFF7BA
:103F3000E7BE00BF90590020014B01221A70704764
:103F40008960002070B5154DEA6A6E6AAC6CAC2AC7
:103F500013D16B6B1C44F61AEB6AAC2B13D03246B0
:103F600021460F4803F002FDA8B100F073F9314675
:103F70002046BDE8704001F099BA002CECD101F068
:103F800035FE0446E8E73246A4F58041044803F0D4
:103F9000EDFC0028E3D1002070BD00BF687C00204C
:103FA0000020070081422DE9F74F04468946174655
:103FB00004D10023184603B0BDE8F08F03D228498E
:103FC0004F20FEF733FCC4F30B031BB124495120EF
:103FD000FEF72CFCA9EB0403B3F5805F4FEA13381E
:103FE00003D21F495420FEF721FC00F00DF9B8F16F
:103FF000080F28BF4FF0080807F6FF754FEA08338F
:10400000DFF860B001932D0B002FD2D0A8452CBF54
:10401000AA46C2464FF00002514620462CBF3E46FB
:10402000019E01F02BFA03460028C3D1F21C22F0B6
:1040300003024946204601F013FA03460028B9D18D
:10404000DBF83030BF1B3444B1441E44CBF8306041
:1040500001F00AFDA5EB0A0503460028D4D0A9E724
:10406000F87E0700687C002010B501F0CFFD134AF0
:1040700042F20403916CCC5803F1A34303F54713B8
:1040800003F2D7539C4214D1D2E90C32934213D09D
:10409000D21A02F6FF7222F47F621944184422F009
:1040A0000F02FFF77FFF034620B9BDE8104001F083
:1040B000DBBC0323184610BD0023FBE7687C00200F
:1040C000F8B52C4CE36AA52B48D003D8012B0CD0B3
:1040D0000020F8BDAA2B45D0AC2BF9D1FFF7C4FFC7
:1040E00000283DD1FFF72EFF3AE0A56C666A01F08B
:1040F00067FD226B03469D4205EB0201104414BF8D
:10410000B21A0022FFF74EFF054608B100250CE069
:1041100001F056FD2A463146FEF76CFBA36A984231
:10412000F4D10123C4E90703A6611348134E01F03B
:104130003BFD00231248337001F096FC33780746AC
:1041400023B910494FF4D170FEF770FB6FB975B108
:10415000236A012B14BF01200220BAE7FFF784FF76
:104160000125E2E7FFF7EEFED0E70320B1E70120EB
:10417000AFE700BF687C00208C7C002089600020B5
:10418000393F0700F87E070008B540F6F87003686D
:10419000013302D10749FFF741F940F6FC7003688B
:1041A000013305D14FF4FC21BDE80840FFF736B9D3
:1041B00008BD00BF002007000A4AD2F800347BB1D6
:1041C00009480023D2F80815D940C90748BF03F5AC
:1041D000C07103F1010348BF42F82100072BF1D160
:1041E000704700BF000001403546526EFFF7E4BF44
:1041F000044B002282B01A601B680193019B02B03D
:10420000704700BF0001014038B50E4C2278BAB9A2
:104210000D4BD3F800248AB1D3F80455FFF7CCFF37
:1042200040F61650A842B8BF28460849A0F5486095
:10423000FFF770FE064B4FF480321A6001232370A3
:1042400038BD00BF8A60002000000140ED4107003A
:1042500000E100E0034BD3F800340BB1FFF7ACBF33
:10426000704700BF000001400023C0E90232C0E9EE
:1042700000118B881A440261B1F906301A44426178
:104280000888003018BF0120704710B542681188B7
:104290000346002939D002F110014160148A2CB97B
:1042A000C2680168FFF7E0FF204610BD90781189D1
:1042B00000F03004302C1BD1947C04F03004302CFE
:1042C0001DD190881969091A19610021907810F0A0
:1042D000300F02BF986801309860908A08441969CD
:1042E00001441961B2F91620114459610120DCE73B
:1042F00000F0F004202C02D150894143E6E700F0A1
:10430000C000802808BF0421E0E70846CDE770B56B
:10431000456804460E4663681A88B24204D19B7809
:1043200003F00F03082B07D12046FFF7AEFF6368A9
:10433000AB42F0D1002070BD0120FCE743681A4475
:10434000426011B101399A4201D10120704713F83E
:10435000010B01F8010FF6E72DE9F34183680446EC
:10436000884623B90027384602B0BDE8F0810368CB
:1043700001220DF10701984707460028F2D0A368F3
:104380009DF80750013B2A06A3601AD505F07F056A
:104390000726A368002BE5D0236801220DF1070151
:1043A000204698470028DDD0A3689DF80720013BF0
:1043B000A36002F07F03B3401D43130606F1070616
:1043C00002D4C8F80050CEE7232EE2D1CAE770B578
:1043D0004268927802F00F01082986B003461FD187
:1043E00003691C6800260CB906B070BD23682673EB
:1043F0009D68626829466846FFF736FF6368049344
:1044000004F10C030593AB7803F0C003802B08BFC5
:10441000231D684608BF0493FFF7D9FFA468E2E7AD
:1044200012F0C00120D102F0300010280ED15A69DC
:1044300011705A6818699378D46803F00F03072B3A
:1044400009D10146204600F017F8CDE79006F0D5D7
:104450005B691980C8E71289214614B103F094FA08
:10446000C2E703F09FFABFE78029BDD100690021B0
:1044700092060160B8D5EBE77FB50A46014668466B
:10448000FFF7F2FE30B16846FFF7A1FF6846FFF77D
:10449000FCFEF7E707B05DF804FB000030B504460A
:1044A00085B01546A9B90268114B9A4211D0102D5A
:1044B00006D82A4669462046FFF7F0FF05B030BD12
:1044C000102269462046FFF7E9FF0028F6D0103D8C
:1044D000EDE7A368AB4201D20020EFE723682A464C
:1044E000204698470028F7D0A3685D1BA560E5E744
:1044F0003D430700F7B50E4601A907461546FFF7ED
:104500002BFFA8B1019A0123D3184FF0000404D265
:10451000B17801F0C001802901D1204608E031893D
:104520009942FAD329463846FFF7B8FF019BEC546D
:1045300003B0F0BD73B50E4601A905461446FFF75A
:104540000BFFB8B1019BB3F5803F07D202229A1846
:1045500004D2B17801F0C001802901D1002009E026
:1045600031899142FAD321461A4621F8023B284666
:10457000FFF794FF02B070BD10B5034C82600022BB
:10458000C0E90041C26010BD3D4307002DE9F3477B
:104590000025064688462F462C46B36843B3336849
:1045A00001220DF107013046984708B3B3689DF822
:1045B00007C0013B0CF07F025FFA82F9C4F12001D1
:1045C000B360A4F1200309FA03F329FA01F109FA0F
:1045D00004F20B431CF0800F45EA020547EA03078B
:1045E00004F1070402D1C8E9005702E0462CD4D1F7
:1045F000002002B0BDE8F08773B50C466946164648
:10460000FFF7C4FF68B12389082B0CD1DDE9004511
:10461000C6E90045DDE90023AB4206BFA242012006
:10462000002002B070BD042B04D1009B33601C46F7
:104630000025EFE7022B4FF0000004D1009B3380F0
:104640009CB20546E6E7012BEBD1009B337003F0EB
:10465000FF04F6E737B50D4669461446FFF796FFA7
:1046600030B12A89082ADDE9003103D1C4E90031DB
:1046700003B030BD042A18464FEAE37108D1236025
:104680001A460B468B4206BF824201200020EFE70C
:10469000022A04D11BB223801AB2D317F2E7012AEF
:1046A00003D15BB223705AB2F7E70020E0E7F7B519
:1046B0000C46002119702170116001A907461546AA
:1046C0001E46FFF749FE30B9BB6813B901233370AA
:1046D000002003B0F0BD01990029F7D0CB0801F00C
:1046E00007012B602170F4E713B5044605291FD894
:1046F000DFE801F0030F151E1E1C012201A9204650
:10470000FFF7CCFE18B19DF90430002BF5DB02B0A9
:1047100010BD082200212046FFF7C0FEF7E701A9DF
:10472000FFF71AFE0028F2D0019AF3E70422F1E71E
:104730000020ECE773B50D4601A90446FFF70CFE17
:10474000064618B90026304602B070BD94E80F0046
:1047500085E80F0001998A42F4D3A960A3685B1A27
:10476000A360F0E72DE9F0435568AB7813F0C0047F
:1047700089B006468C46174603D0402C6AD00024E8
:104780000AE003F00F025E4903F03003102B51F8EA
:10479000228020D004D8CBB1204609B0BDE8F083F8
:1047A000202B1ED0302BF7D17B6929881980072A4E
:1047B0000AD17B6838691A89214603F0F3F87B68CF
:1047C0003969D868FFF758FE3A6940E03A692946E6
:1047D000C0470446E0E77B6901221A703A697968AC
:1047E000F6E7BCF1020FD7F8149024D1042A22D89E
:1047F00004A9FFF79FFF04460028C0D0069B2BB1F9
:104800007968B9F800304A899A4205D8059B7360E7
:10481000069B002BC0D0B2E708893A6903FB00224F
:1048200004A8C04728B1B9F800300133A9F8003016
:10483000E4E70446EAE7B9F800306A899A429ED96B
:104840003A692989581CA9F8000003FB01227968FC
:104850003046BDE7D2F81080454655F8043B13B901
:10486000FFF742FFB5E7022914D104A9FFF762FF61
:10487000002884D0D8F8003079682A4604A89847E0
:10488000044600283FF47BAF069B002BF2D1059B2A
:10489000736081E701292BD04CB24CB105297FF41C
:1048A0006EAF04220DEB0201FFF7F8FD042424E0B3
:1048B0000DF1040901340B2C3FF461AF012249468C
:1048C0003046FFF7EBFD00283FF459AF19F9013BE3
:1048D000002BEFDB0B4B049301ABCDE90534002338
:1048E0000793D8F8003079682A4604A8984770E7FB
:1048F000082201A9FFF7D2FD08240028EAD13EE7EB
:10490000607F07003D4307002DE9F04F91B004465A
:10491000002604A8CDE90266FFF7A6FCA3683BBB0E
:10492000DDE9053404A89D78FFF7AFFC0028F7D136
:1049300015F0300F03D1059B1B8803B10134002C07
:1049400000F0A9806309002202A9934240F09C80F4
:1049500010AA02EB830304F01F04C4F120044FF0FB
:10496000FF3053F8383CE040C31A584258410DE03C
:104970000DF1030301AA0DF102012046FFF797FE96
:1049800038B99DF80330002BCAD1002011B0BDE822
:10499000F08F019904A8FFF7BAFC002850D1019BC1
:1049A000B3427DD3059D059A937803F00F03082B3E
:1049B0007FD004A8FFF769FC059B9D42F3D14FF01F
:1049C000FF36019FB7426BD3089B9DF80290D4F845
:1049D00008801D684FF0010AA368002D5DD098453E
:1049E0009CD12B68D3F800B0BBF1000F08D04B4628
:1049F0003A4629462046D8470028C6D0AD68EBE79E
:104A0000D3F808B0BBF800309F42F7D16A68594626
:104A10000AA8FFF729FC6B680E9305F10C030F93AE
:104A20009BF8023003F0C003802B04BF2B1D0E93B4
:104A30000AAA85F80CA049462046FFF793FEDBE75B
:104A4000059B9B7813F0300F0FD1069A3F2A0CD8A4
:104A5000510910AB03EB810102F01F0201239340C7
:104A600051F8382C134341F8383CE5682DB104ABBC
:104A70009DF8022001992046A84704AA9DF802103B
:104A80002046FFF76FFE10E051F8225001357FF409
:104A90007DAF013259E7012078E798457FF43EAFBA
:104AA0009DF802102046FFF71FFE00287FF436AF66
:104AB0006BE7168885E770B50C4606461546114625
:104AC0002046FFF7D9FC2A4621463046BDE8704013
:104AD000FFF71ABFF0B585B00C46CD6869460746AA
:104AE0001646FFF727FE68B1E06858B1A37803F0D7
:104AF0003003202B32462946684605D1FFF7DBFFFD
:104B0000019B7B6005B0F0BDFFF7FEFEF8E7D3B573
:104B10000C466946FFF73AFD80B1DDE90013002736
:104B20004A0801F0010642EAC37256EA07014FEA59
:104B300053031CBFD243DB43C4E9002302B0D0BD02
:104B400037B50D4669461446FFF7E1FF68B12B897A
:104B5000082B0CD1DDE90001C4E90001DDE90023E7
:104B60008B4206BF82420120002003B030BD042BDF
:104B700003D100982060C117F0E7022B04D1BDF9E2
:104B80000000208000B2F6E7012B04D19DF900005F
:104B9000207040B2EFE70020E7E713B504220C468F
:104BA0000DEB0201FFF77AFC08B1019B236002B014
:104BB00010BD1146FFF7F1BF13B508220C46694638
:104BC000FFF76CFC18B1DDE90023C4E9002302B053
:104BD00010BD1146FFF7F0BF10B513681F2B144628
:104BE00007D900220830FEF779FB08B9202323609B
:104BF00010BD48F21450FBE70830FEF74BBB0830FD
:104C0000FEF718BB007800F001007047831F012BEE
:104C100010B5044602D8002000F0AEFF034B1B681D
:104C20001BB12046BDE81040184710BD8C60002025
:104C300008B5074B18600020FFF7E8FF054800F0B3
:104C400083FF20B90348BDE8084000F0EDBD08BD72
:104C50008C6000200D4C07006CDF70476DDF7047E3
:104C600072DF704773DF704774DF704775DF70471E
:104C700076DF70477ADF70477CDF70477DDF7047F3
:104C80007FDF704786DF70478FDF704790DF7047A8
:104C9000A8DF7047AADF7047ADDF7047AEDF70470F
:104CA000B0DF7047B1DF7047B5DF704762DF704734
:104CB00066DF704713DF70477FB50023CDF80A30F9
:104CC000ADF80E300A4BADF806109B89ADF80830F0
:104CD00001238DF80A300DF10603CDE90430054BB0
:104CE00002A91888FFF7DAFF07B05DF804FB00BFE0
:104CF000FA7000209659002001460148FDF7D6BE03
:104D0000C484070070B518228CB000210DEB02009E
:104D100002F048FE2823089316231F4CADF80630F6
:104D20000023CDF80E30CDF81230ADF81630022346
:104D3000092606222370237159230125A27063716D
:104D40000322FE230DF10601A0198DF818508DF8ED
:104D50002D500294ADF80C606570E270A371FFF7FE
:104D60008DFFB8B9BDF8063026725A19E271BDF848
:104D70000C200A4C134402A906AA2046ADF80C30B8
:104D8000FFF76EFF30B92078FFF76EFF29462078D5
:104D9000FFF768FF0CB070BD0E7100209459002021
:104DA0002DE9F04103881F2B8AB0044600F0C38030
:104DB0002AD8112B57D007D8012B00F0CD80102B0B
:104DC00043D00AB0BDE8F081142B00F043811A2BC8
:104DD00034D0132BF5D10023A24CADF812300223AE
:104DE000ADF8103004AA02AB42F6052120880593E5
:104DF000FFF752FF08B1FEF7B9FD00231A468521DF
:104E00002088FFF73DFF86E0512B00F0AB800ED8E5
:104E1000232B00F08880502B39D0212BD1D10023B7
:104E200004A98088ADF81030FFF72EFF73E0552BF2
:104E300059D0562B00F08680522BC2D100231A463F
:104E40001946A088FFF72EFF65E0864B82881A80FE
:104E5000854A12681C460AB1012090478349208880
:104E6000FFF704FFADE77F4B4FF6FF721A80804BD0
:104E70001B685A0704D4FFF745FF08B1FEF776FD1B
:104E8000794B1B68002B9CD00220984799E7794EFC
:104E9000C288B3889A4294D17748FDF7D9FD054678
:104EA00000288ED0228A04F1120102F06DFD182232
:104EB000002104A802F076FD08238DF810306F4B16
:104EC00006936F4B0596CDE9073504A8238AADF804
:104ED000243000F09FFC00283FF473AF2946664859
:104EE000FDF7E4FD6DE7C188F6291AD8CB1E9B07B4
:104EF0000DD0CB1F9BB2013B5A4202F0030203F0DC
:104F0000030301F1FF3158BF5342C91A89B2554B0F
:104F10001888FFF7C9FE00283FF453AFFEF726FDBF
:104F20004FE7F721F3E7002204A98088CDE90422A6
:104F3000FFF7ACFEEFE74B4B00F108011888FFF7D5
:104F400095FEE8E78379002B7FF43BAF454B1321B7
:104F50001888FFF78DFEDEE7424B00211888FFF727
:104F6000A7FED8E78379002B3FF42BAF022B7FF409
:104F700028AF404900898A8990420E467FF421AFCC
:104F8000A27B012A7FF41DAF00220120CDE904227B
:104F90008DF81600208AADF81800324D608AADF801
:104FA0001A0004F114000790ADF80A2001AF02AA1C
:104FB000098A28888DF81030ADF808300397FFF77C
:104FC0006BFEA84660B93846FFF71CFE40B940F2B8
:104FD000FD1304A92888ADF81430FFF761FEF0E650
:104FE000002304A9B8F80000ADF81430FFF758FE0C
:104FF000014600287FF4E5AE182204A802F0D2FC96
:10500000237D1E4A8DF81030022B0596069218D08B
:10501000062B10D0012B10D11A4B1A881A4B1A806C
:10502000637DD4F816200893012B099205D1174807
:1050300000F0A2FD01E0637D089304A800F0EAFB04
:10504000BFE6A27D637D43EA02230E4A13800E4A27
:105050001380F2E700231A4619468088FFF712FEF4
:1050600059E700BF9659002034710020D68107000F
:1050700030710020FA700020C4840700FD50070042
:10508000F94C0700387100203A710020B084070005
:1050900038B5154A1368044613F0010022D01349AD
:1050A0008C421ED0124908884FF6FF71884213D0F7
:1050B00043F0040313211360FFF7DAFD90B90D4D9F
:1050C000C82445F001054FF47A40A847013CFAD1C5
:1050D000BDE8384001F01ABB074B1878FFF7C4FD54
:1050E000F6E7002038BD00BF30710020B084070013
:1050F00096590020D08107009459002030B50D4604
:1051000087B0044620B9404940F28710FDF78EFB76
:1051100025B93D494FF4C470FDF788FB11220021E9
:1051200001A802F03FFC2378082B0BD1374A3849FD
:1051300013880988013B9BB21380D9B1D3B90323EB
:1051400011802370627823788DF805306021012A60
:105150008DF804108DF806200ED00B2A12D100F025
:105160009BF98DF80700002000F090F9042101A8B8
:10517000FFF7A2FD07B030BD062B05D0082B29D0C4
:10518000032B27D00321F2E7E1688DF80710D4E95B
:105190000123080A8DF80800080C090E8DF80A1082
:1051A000110A8DF80B208DF80C10110C120E8DF8D1
:1051B0000E201A0A8DF80F308DF810201A0C1B0ED5
:1051C0008DF80D108DF809008DF811208DF8123032
:1051D0000F21CCE7D4E90123110A8DF807208DF8BF
:1051E0000810110C120E8DF80A201A0A8DF80B30D7
:1051F0008DF80C201A0C1B0E8DF809108DF80D205F
:105200008DF80E300B21B2E7608107003A71002063
:10521000387100202DE9F043054695B020B9464984
:1052200040F24F40FDF702FB444B4FF6FF721A80ED
:1052300001204FF659632A4602A98DF80A00ADF8FD
:105240000830FFF725FD0446002871D13C4B04AA25
:1052500003F11007164618685968144603C408334A
:10526000BB422246F7D1A91C3046FFF71FFD04467A
:1052700000285DD101461C220DA802F093FB9DF889
:105280003430ADF8044043F004038DF83430022389
:10529000ADF80C30AB788DF80E3004F0F80343F025
:1052A00003038DF80630F423CDE90A44ADF82C3021
:1052B0002B4601AE4FF0110903AF33F8040B0C94E9
:1052C00008AA0DA98DF80590CDE90876FFF7E2FC54
:1052D000A046044660BB01461C220DA802F062FBFA
:1052E0009DF83430ADF8044023F0180343F0180360
:1052F0008DF834300123ADF80C30AB788DF80E30DA
:105300001723CDE90A44ADF82C302B4608F0E80805
:1053100048F0130833F80C0B0C9408AA0DA98DF86B
:1053200005908DF80680CDE90876FFF7B3FC0446BA
:10533000204615B0BDE8F083608107009659002033
:105340005081070030B5334C236813F0010585B058
:105350005DD1314B18603148FDF73CFB029500F000
:10536000B6F800284CD12E48FFF7A4FC002847D1FE
:1053700001F08EF9002843D102A801F057FA002865
:105380003ED102A9012001F05BFA002838D102A821
:1053900001F0BEFA002833D100F0AEFB30B1214855
:1053A00000F09EFB236843F002032360112302A850
:1053B0008DF80430FFF752FC10BB9DF8093002A8AD
:1053C00001338DF80930FFF747FCC8B923689B0704
:1053D00018D514498869043182B201A8FFF74CFC42
:1053E00070B91148FFF746FC50B91048FFF712FF9B
:1053F00030B9FFF787FC18B9236843F00103236035
:1054000005B030BD0A4802F0D5FA0949E4E70020AA
:10541000F6E700BF3071002034710020C48407001B
:105420000020070090600020D6810700FA7000205D
:10543000BC81070043690BB1C06818477047000082
:105440000449054B0022904208BF19460348FDF766
:1054500055BB00BF107B0700E47A0700085A002004
:1054600007B5009313460A4601460348FDF75EFB65
:1054700003B05DF804FB00BF085A002013460A463B
:1054800001460148FDF7A2BB085A0020014B1870E5
:105490000B2070473C710020024B002218781A70D4
:1054A000704700BF3C71002018DF704730B585B0F1
:1054B000054610220C466846002102F073FAA40843
:1054C000684601950294FFF7EFFF05B030BD1FB5A8
:1054D0000023CDE901330393684602230093FFF7CD
:1054E000E3FF05B05DF804FB4FF000534FF480522A
:1054F0001A60002070470000014B06201B68184707
:10550000487100200A2803D90B38C0B2FFF7BEBF8C
:105510007047000010B5044686B00020FDF792FBEE
:10552000014630B1164A18212046FDF76DF806B045
:1055300010BD1822684602F035FA04238DF80030B9
:10554000104A114B116D1B68994211D10F4B18680D
:1055500000F0CCFF8DF80100FFF7D4FFD4E9011370
:105560008DF8010068469847094800F07DFADEE7AB
:1055700001238DF801306846D4E901139847D6E736
:1055800015550700687C0020407100204471002000
:10559000F9540700F0B5836887B0044623B99749EA
:1055A00040F2CF20FDF742F9162200210DF1020052
:1055B00002F0F8F923788DF8003001220C2B8DF8D9
:1055C000012000F218819A4012F4AD7F15D15107E5
:1055D00006D4D30440F10F81894B07201B689847FC
:1055E000D4E90113684698479DF80130012B00F07B
:1055F000F380834B05201B68EDE0062B814A01D028
:10560000012B01D1216911701178012904D00229DF
:105610005AD00023137092E0013B072B4ED8DFE8ED
:1056200003F0044D47314D444D10754B03201B686A
:105630009847606900F018FDFFF764FF8DF80100DE
:10564000CEE7236923B96D4940F21310FDF7EEF858
:10565000A38A23B969494FF48A70FDF7E7F8A18A54
:10566000206900F019FDFFF74DFF674B8DF8010031
:10567000DA6B1B6C0293E3680192002BB0D02069B7
:105680009847ADE76149624800F058FDFFF73AFFDF
:1056900001288DF80100A3D1002000F0E5F90028D1
:1056A0009ED00A238DF801309AE74FF400730393DC
:1056B000554BDA6B1B6C0192029391E74F494FF403
:1056C000BC70FDF7B3F88BE7013B072B00F28F802E
:1056D000DFE803F0048D6A6F8D848D3700F0FCFCE9
:1056E00008B90823DEE762690AB90323DAE7C2F3DF
:1056F0000B0333B1444B45495B6D096813448B423E
:10570000F3D1B2F5805F01D90423CBE73E4B3F498B
:10571000586D096815188D42E3D85A64DA6C9A649A
:10572000186518633A4B61691B6801F6FF71002226
:10573000090B1844FFF7A2FE00283FF451AF0523E0
:10574000B0E700F0C9FC0028CBD02F4DA18AD5E9E5
:1057500014329B1A6A6C0B449342C6D82C4B2E6BA6
:105760001B68206905F148021E44FDF743F8E36811
:10577000074623B921494FF4F870FDF757F8E3685D
:10578000A28A21693046FFF76BFE08B1E36876E72D
:10579000A28A2B6B029713442B63A38A2A6DAF64F2
:1057A00013442B6501931BE7174B9A6C02921B6DF8
:1057B000F8E7154BD3E91402596C821A8A4290D14A
:1057C0009A6C5865002120465964DA64FFF7A2FEFE
:1057D0000B4B1B680420984707B0F0BD0A4B9A6C2E
:1057E0001B6D01934FF4805302920393F8E6034933
:1057F00040F2972065E7022354E700BFDE810700EF
:105800004871002098590020687C002040710020D9
:105810004471002083681BB1024A1821FCF7F4BED2
:10582000072070479555070038B50546C0B10120DF
:10583000FFF706FE044648B900F008FC00F04CFCF7
:1058400030B9084B00201D60FFF720FE204638BD10
:105850000549064800F072FC0128F2D00324F5E760
:105860000724F3E7487100204071002044710020B4
:1058700010B50022044658210430FCF7BBFF236812
:105880001B1A5842584110BD2DE9F04115464FF4FE
:105890006072064688461F4602F068F828B915B9B6
:1058A0000020BDE8F081A847FAE700220121304638
:1058B000FFF7E4FD70B94FF460724146384602F0DC
:1058C00063F82B464FF4607239463046FFF7C8FD47
:1058D0000028E5D00320E4E72DE9F04136480368CD
:1058E00001334FD0FFF7C4FF8046344D344E2F684C
:1058F0003B6801335BD03846FFF7BAFF002844D03D
:105900007C68012C0AD00022C32107F51870FCF72F
:1059100071FFD7F85C42231A5C425C41B8F1000F7A
:1059200035D04FF460722449254802F02DF864B157
:10593000296824485422043102F026F829682248B4
:105940004FF432725C3102F01FF87468012C2CD1D4
:105950001E49402201F5E47002F016F81C491C2291
:1059600001F5E47002F010F81A4986F8A14200230C
:10597000042201F2862086F8603286F8E23202F0D4
:1059800003F810E04FF00008AFE70446C6E724B183
:105990004FF4607229680A48D5E74FF4607200211D
:1059A000074801F0FFFF02237360BDE8F081B8F102
:1059B000000FF2D00024B4E700F007009C5900204B
:1059C000687C00206C7C0020C47C0020C47D00200A
:1059D000047E0020847C002070B50D4C0646002219
:1059E00058212046FCF706FF002244F8040CC3218E
:1059F00004F51770FCF7FEFE251FC4F85802324666
:105A00002946044B0448BDE87040FFF73DBF00BF86
:105A10006C7C00204C71002000F0070070B50B6812
:105A2000013305460C460DD109494FF4C170FCF70E
:105A3000FDFE0848084B00682A462146BDE8704034
:105A4000FFF722BF0846FFF713FF0028F1D1EBE76D
:105A50003E8207009C590020CC7400200149FFF7CA
:105A6000DDBF00BF00F0070038B505460020FFF796
:105A7000B3FF044618B903492846FFF7CFFF204675
:105A800038BD00BF687C002010B5FFF7D9FC044684
:105A900028B9FFF721FF2046FFF7E6FF00B10320FA
:105AA00010BD29DF7047000038B50C4D0446D5F80D
:105AB000643378B101330FD1002218210430FCF790
:105AC00099FE2060214605F559700722BDE838404F
:105AD000FFF7E7BF0E2038BD0820FCE700F0070005
:105AE00008B528B11C22034901F04EFF002008BD73
:105AF0000E20FCE764F3070010B5064C00221821C5
:105B00002046FCF777FE54F8043C1B1A58425841D3
:105B100010BD00BF68F3070010B50A4CD4F8243359
:105B2000D4F864231340013309D04FF4FE20FDF76D
:105B30005DFCC92221464FF4FE20FDF785FC0020C4
:105B400010BD00BF687C0020F8B5094E094CA41BAD
:105B50000746E4080025A54201D10020F8BD56F80B
:105B60003530384698470028F8D10135F3E700BFB3
:105B7000B0840700B8840700F8B5094E094CA41B8F
:105B80000746E40800250436A54201D10020F8BDEF
:105B900056F83530384698470028F8D10135F3E7F4
:105BA000B0840700B884070008B50C22002101F07A
:105BB000F9FE024B00221A6308BD00BF687C00207A
:105BC00043F204031A68084B9A4201BF43F20803E8
:105BD000186800F6FF7020F47F600CBF20F00F0003
:105BE0004FF48050704700BFDBE5B15108B5FFF7B7
:105BF000E7FF054B9B69184400F6FF7020F47F60B7
:105C000020F00F0008BD00BF687C00204FF48050DA
:105C1000704700002DE9F74FDFF8B0B0274F009133
:105C200006469046019300255FFA85F9B9F1010F08
:105C300020D0B9F1020F2CD0FFF7D8FF8246B8F17F
:105C4000000F15D0DBF82040631E5C425C415745D5
:105C500003D21B49B120FCF7E9FDA7EB0A02B242CF
:105C600001D3009BFBB1C4B1B2421CD2042021E09D
:105C70004446ECE7FFF7A4FF019B82463BB943F2A1
:105C80000401104B0C68E41A18BF0124DFE74C46EE
:105C9000DDE701244FF4805AD9E70135032DC3D144
:105CA000B242E3D302E0B9F1000F02D00648FFF799
:105CB0007BFF002003B0BDE8F08F00BF00F00600BE
:105CC0009B820700DBE5B151807C0020687C0020CE
:105CD00090F8552012F0FB0F07D190F8643023B1F3
:105CE000836ECBB10B600120704712F0010303D02B
:105CF00090F8563003B1836D9207F2D590F85C208E
:105D0000002AEED0054A006EC2F5FC22904201D86E
:105D10000344E6E7042070470F2070470020070087
:105D200010B5084C4FF40072FF21204601F03AFEF6
:105D300020220021A4F1240001F034FE002344F8C5
:105D40002C3C10BDC47C002030B55B68DA680D4B7C
:105D50009A4208D10C490A6812B90C4A14681CB15D
:105D60000B4B00221A7030BDD0E901341C4413F9EA
:105D7000015B002DA4EB0300F9DB0B601060044B0A
:105D80000122EFE72C800700747800207078002053
:105D90007878002010B543F20403194A1C68944235
:105DA00001462BD042F20403C358981A43424341A0
:105DB0009442184621D142F20403CB58A3421CD18D
:105DC0004FF4405301F500521B781278142B81BF19
:105DD00043F214030B481B68B3FBF0F398BF002396
:105DE000142A89BF42F2140200208858054A88BF4D
:105DF000B0FBF2F0181A18BF012010BD0023D7E73E
:105E0000DBE5B15140420F002DE9FF472F49304DEE
:105E10008A6B304C304FDFF8D490DFF8D4A06E4658
:105E20005C313046FEF7A8FB96E80F0085E80F00CE
:105E300000212A4B39704FF447722046C9F80010F0
:105E4000CAF80010EB6001F0ADFD22462449284657
:105E5000FEF731FE20B90027384604B0BDE8F087D0
:105E60003F78002FF7D094F86C3194F800801BB382
:105E7000B8F1000FEFD194F87231002BEBD0DAF8C3
:105E80000020D9F800103046FEF776FB96E80F00A8
:105E900085E80F004FF4B272414604F5BA7001F084
:105EA00081FD04F5BA720F492846FEF704FE00286A
:105EB000D1D004F5BA7406E0B8F1000FCBD0A379C5
:105EC000002BC8D00834084B1C60C5E7687C002054
:105ED000987B00207C78002078780020495D0700BE
:105EE000E08007002C800700547C0020747800209C
:105EF0007078002000B591B0FDF79EFC18B10D49F7
:105F0000DB20FCF793FC20220B496846FDF7E4FCFC
:105F100040236A4609490A48FDF7E6FB18B10549DE
:105F2000E520FCF783FC074B01221A7011B05DF8E5
:105F300004FB00BFF5820700847D0700A87B0020DA
:105F4000987C07004C780020F0B5A3B006460F46B9
:105F500015461C4678222023002104A8029301F054
:105F600021FD00230393194B1B780BB9FFF7C2FFE8
:105F70002FB336BB02AB164E01930096289B1549F2
:105F8000224604A8FDF73EFCE8B9402D1BD1124C77
:105F90002A463946204601F0F7FC20212046FDF72D
:105FA000A8FCCDE90045029B0C49324603A8FDF749
:105FB000B7FB00280CBF0120052023B0F0BD132043
:105FC000FBE71620F9E70A20F7E700BF4C7800202E
:105FD000F07B0020847F0700107C0020A87B00203D
:105FE000F0B5ABB004460E4617461D467822202376
:105FF00000210CA8039301F0D5FC114B1B780BB9C1
:10600000FFF778FF2DB12146202204A8FDF748FCB8
:1060100004AC03AB0B4D019300953B4632460A4955
:106020000CA8FDF7EFFB48B920222146284601F0D5
:106030009DFCB0FA80F040092BB0F0BD0020FBE7DA
:106040004C7800204D780020847F070008B5044B71
:10605000986B08B1FFF7D8FE024B187008BD00BF5F
:10606000687C0020507C002010B5044658B1B0F583
:10607000007F0AD8064B00221A70FFF751FE054B2D
:1060800001209C6310BD0320FCE70420FAE700BF59
:10609000507C0020687C002070B50E4C0646E06BFA
:1060A000A36B42189A420D4611D85C300A46204430
:1060B000314601F069FCE36B04F140022B442946B0
:1060C0003046E363FCF796FB2064012070BD03209B
:1060D000FCE700BF687C0020014B1878704700BFC8
:1060E000507C002013B5124C94F86C2182B194F8C6
:1060F000D802B4F8DA2204F5377104F5B87494F8CC
:1061000059304BB9201D02B0BDE8104000F0F2B983
:10611000114610460434F2E7064B1B680093064B09
:106120001B68FFF711FF0128ECD002B010BD00BFC3
:106130007C78002070780020747800202DE9F041F0
:106140001F4BD3E90E329A4207460D4633D1DFF892
:10615000788098F800604EB1FFF748FD194B386021
:1061600029461868BDE8F041FFF7B2BDFFF74CFEC5
:1061700018B3FFF7B7FF01283E6004462E6017D121
:10618000104B29461868FFF7A3FD012804460FD1DC
:106190000346324631462868FFF73CFD38B9FFF721
:1061A00025FD88F8004038602046BDE8F0810424D1
:1061B000FFF7B6FDF8E70824F6E70524F4E700BF8B
:1061C000687C0020547C0020507C002070B50D4677
:1061D0001646044620B907494FF42E70FCF726FBFB
:1061E0003246294604F172000123BDE87040FFF7F2
:1061F000F7BE00BFF582070013B503780C461146C1
:10620000032B1ED8DFE803F0060208110022204607
:10621000FCF7F0FA012012E00A4600232146013083
:1062200002B0BDE81040FFF7DBBE00912346411CE1
:1062300040220020FFF788FE431E5842584102B01A
:1062400010BD40F2E1300249FCF7F0FA0020F6E719
:10625000F58207002DE9F041A2B004460D4617462D
:1062600000217822984604A8202303939DF8A0607B
:1062700001F098FB41220021204601F093FBB5F884
:1062800094300BB195F896602670032E1ED8DFE887
:1062900006F00902111F002241463846FCF7AAFA0F
:1062A000C4F80100424639462046FFF7A5FF22B058
:1062B000BDE8F08103AB0193631C00933A4643466B
:1062C000074904A8FDF79EFA0028EBD00020EEE76E
:1062D000B5F8982005F19A01601C01F055FBE1E743
:1062E000847F07002DE9F047784B1C68A4B0054671
:1062F000884617460A4601462046FFF767FF0028F2
:1063000000F0858094F855604EBB4FF00109CDF840
:10631000009043462A46214613A8FFF79BFF00281A
:1063200000F0C680002F34D0412213A9684801F044
:106330002BFB684B94F89220C3F82C901E6212B18C
:1063400094F893200AB962689A6000224146284670
:10635000FCF750FA5F4B0124C3E9098052E0412267
:10636000002102A801F01EFB06F0010941220021D4
:1063700013A806F0020601F015FBB9F1000F48D191
:10638000002E35D1544940F26930FCF74FFA002F06
:1063900031D1504B01245C618FE0002FF9D0B9F16D
:1063A000000F28D02846FFF7F5FC10B14B48FFF747
:1063B000FBFB412202A94A4801F0E6FA002E454BB8
:1063C00014BFAC22A522DA62A26D5A63002EBCD0A3
:1063D000412213A9434801F0D7FA94F892301BB137
:1063E00094F89330002BB0D13A4B6268DA60ACE796
:1063F00043462A4653E0374BAA22DA62E6E73A4898
:10640000FFF7D2FBFFF78CFC324B9D6455E017245D
:106410004FE042F20403E95803F1A34303F54713A5
:1064200003F2D753994243D1D4F858A00AF5FF524A
:106430000AF6FF73C3F30B031F32D21A42F20803AA
:10644000EB58934234D343F204031B688B4213D1BD
:106450004FF440531B78102B8ABF43F210030022E5
:106460001A6805F500531B78102B8ABF42F21003FF
:106470000023EB589A421BD12846FFF78BFC00B152
:10648000B6B1012300932A465346214602A8FFF7DE
:10649000E1FE68B1AEB1A36DEA18A8EB03030021D9
:1064A000009113A82146FFF7D5FE00287FF475AFB1
:1064B0000524002FA3D1FFF733FC204624B0BDE80C
:1064C000F087002F7FF46EAF63E700BF547C00209D
:1064D000097F0020687C0020F5820700807C002076
:1064E000C87E00204A7F00208C7C00200122FFF71C
:1064F000F9BE0000F8B5044618B93349C420FCF7CA
:1065000095F994F85430002B57D094F85530032B5C
:1065100053D894F86E20032A4DD194F892201AB1E2
:1065200094F89320002A4CD1227A002A45D0E268C0
:10653000342A44D143F20401228A0868234988425C
:1065400029D152B16169E9B1D2B2002104F1140537
:1065500043F20C06C8B2904201D3122011E055F864
:1065600021703088874201F10101F3D12278EAB12C
:10657000012B26D9164B6068DB6898428CBF01203E
:106580001020F8BD002BF1D013F1FF3218BF01220B
:10659000002AEBD1E1E712B16269002ADDD1012BBB
:1065A0000CBF2278012202F00102F1E7012B8CBF1F
:1065B0000F200120E5E71420E3E70F20E1E7112099
:1065C000DFE70120DDE700BF54830700DBE5B151C1
:1065D000687C002010DF704711DF704713B5044658
:1065E00009496846FCF754FD019808B902B010BD8E
:1065F000D0E900312046984718B16846FCF760FDA5
:10660000F2E71120F2E700BFBC83070013B5044690
:1066100007496846FCF73CFD019B0BB902B010BD71
:106620002046D3E9002190476846FCF749FDF3E78F
:10663000D4830700064B9A6822B11A6822F48002BC
:106640001A607047034B4FF48002C3F880207047F4
:106650005C7C002000E100E00B4991F816335A09F8
:10666000EC231341DB0706D5084B9A683AB94FF47F
:1066700080030B60704742F20200FDF777B91A6899
:1066800042F480021A60704700E100E05C7C002068
:10669000F7B5194F3C7864BB184E0125204635707C
:1066A000FFF79CFF112821D02046FFF7AFFF144BC6
:1066B0008DF80340186801900DF10300FCF74AF8CB
:1066C000104901A8FFF786FF0446B0FA80F04009A0
:1066D00038709DF80300FCF76DF83CB90A4B347034
:1066E0001C70FFF7B9FF2846FFF790FF204603B064
:1066F000F0BD0824FAE700BF597C0020587C002038
:10670000B7830700673907005A7C0020F7B5154F9B
:106710003B781BB3144E01203070FFF75FFF112848
:106720004FF000051CD00220FFF770FF0DF10700AD
:106730008DF80750FCF70EF8FFF74EFF04469DF862
:1067400007003D70FCF736F82CB93470FFF772FF84
:106750000320FFF75BFF204603B0F0BD0824FAE7F3
:106760002C46F8E7597C0020587C0020054B1B780C
:1067700033B1054B1B780BB1FFF7C8BFFFF788BFDC
:1067800008207047587C0020597C0020014B187865
:10679000704700BF597C002007B508496846FCF7E0
:1067A00077FC019B13B903B05DF804FBD3E900202B
:1067B00090476846FCF784FCF3E700BFC8830700F6
:1067C000FFF7EABF60DF704769DF704761DF70473E
:1067D00030B5114DADF5017D4FF4FA740DF10201A4
:1067E00003A8ADF80240FFF7F1FF70B9294601A8F0
:1067F000FCF74EFC029B002BF0D003A8D3E900214C
:10680000904701A8FCF75CFCF4E7052801D0FDF7F0
:10681000ADF80DF5017D30BDE0830700024B1B781C
:106820000BB1FFF7D5BF70475B7C002018B1034B5D
:106830000360002070470E20704700BF6859002099
:10684000F0B5074685B00D4600295DD02F4B0B6093
:106850000C22002101A801F0A5F8012606232A68D0
:10686000ADF8083001A920208DF804708DF806607D
:10687000FFF7AAFF0C22002101A801F093F80024E1
:106880002A688DF8056001A94020ADF80640FFF7A1
:106890009BFF0C22214601A801F084F8F7232A6807
:1068A000ADF8063001A923208DF80470FFF78CFFA6
:1068B0000C22214601A801F075F82A688DF80460C1
:1068C00001A93046FFF780FF0C22214601A801F004
:1068D00069F84FF4B0632A68019301A9A120FFF77A
:1068E00073FF0C22214601A801F05CF89DF80430EA
:1068F0002A6864F3000301A9A0208DF80430FFF793
:1069000063FF204605B0F0BD0E20FBE7685900206C
:1069100008B5FFF757FF10B9014B01221A7008BDE7
:106920005B7C00204BDF70471FB50D4C01A8FFF7C3
:10693000F9FF70B9214602A8FCF7AAFB039B002BC4
:10694000F4D00198D3E90021904702A8FCF7B8FBE6
:10695000F4E7052801D0FDF709F804B010BD00BF29
:10696000EC8307008B1802448B4200D1704713F868
:10697000010D02F8010DF7E7000000000000000023
:10698000C3F10803DB0070B50133002403A500BF89
:106990005B1920C940CAAD1920C0184720C940CA98
:1069A000754120C020C940CA754120C020C940CAD5
:1069B000754120C020C940CA754120C020C940CAC5
:1069C000754120C020C940CA754120C020C940CAB5
:1069D000754120C06441204670BD00BF000000002A
:1069E000C3F10803DB0070B50133002403A500BF29
:1069F0005B1920C940CAAD1B20C0184720C940CA36
:106A0000B54120C020C940CAB54120C020C940CAF4
:106A1000B54120C020C940CAB54120C020C940CAE4
:106A2000B54120C020C940CAB54120C020C940CAD4
:106A3000B54120C06441B4FA84F0400970BD00BF84
:106A40002DE9F04F08B4F8CA04B451F8042BA3FBA5
:106A5000028940F8048B4FF0000AE4FB629A4FF081
:106A6000000BE5FB62AB4FF0000CE6FB62BC4FF0A5
:106A7000000EE7FB62CE51F8042B4FF00008E3FB59
:106A8000628940F8048BE4FB629AE5FB62ABE6FBAB
:106A900062BCE7FB62CE51F8042B4FF00008E3FB29
:106AA000628940F8048BE4FB629AE5FB62ABE6FB8B
:106AB00062BCE7FB62CE51F8042B4FF00008E3FB09
:106AC000628940F8048BE4FB629AE5FB62ABE6FB6B
:106AD00062BCE7FB62CE51F8042B4FF00008E3FBE9
:106AE000628940F8048BE4FB629AE5FB62ABE6FB4B
:106AF00062BCE7FB62CE40F8049B40F804AB40F870
:106B000004BB40F804CB40F804EB0CBC052B00F0B0
:106B10001E810C68A0F11400A1F11401A2F114026D
:106B200052F804EB4FF0000550F8046BE4FB6E568E
:106B300052F804EB50F8047BE4FB6E6752F804EB68
:106B400050F8048BE4FB6E7852F804EB50F8049B89
:106B5000E4FB6E8952F804EB50F804ABE4FB6E9A48
:106B6000A0F1140052F8044B51F804EB4FF0000C64
:106B7000E4FB6EC540F804CB51F804EBE4FB6E5621
:106B800040F8045B51F804EBE4FB6E6740F8046BDB
:106B900051F804EBE4FB6E7840F8047B51F804EB09
:106BA000E4FB6E8940F8048B51F804EBE4FB6E9A29
:106BB000A0E80006062B00F0CA800C68A0F11800BF
:106BC000A1F11801A2F1180252F804EB4FF00005F0
:106BD00050F8046BE4FB6E5652F804EB50F8047B5B
:106BE000E4FB6E6752F804EB50F8048BE4FB6E781C
:106BF00052F804EB50F8049BE4FB6E8952F804EB66
:106C000050F804ABE4FB6E9A52F804EB50F804BB66
:106C1000E4FB6EABA0F1180052F8044B51F804EB02
:106C20004FF0000CE4FB6EC540F804CB51F804EBC8
:106C3000E4FB6E5640F8045B51F804EBE4FB6E672E
:106C400040F8046B51F804EBE4FB6E7840F8047BE9
:106C500051F804EBE4FB6E8940F8048B51F804EB27
:106C6000E4FB6E9A40F8049B51F804EBE4FB6EAB36
:106C7000A0E8000C072B6AD008B40C68A0F11C0037
:106C8000A1F11C01A2F11C0252F804EB4FF0000527
:106C900050F8046BE4FB6E5652F804EB50F8047B9A
:106CA000E4FB6E6752F804EB50F8048BE4FB6E785B
:106CB00052F804EB50F8049BE4FB6E8952F804EBA5
:106CC00050F804ABE4FB6E9A52F804EB50F804BBA6
:106CD000E4FB6EAB52F804EB50F804CBE4FB6EBC63
:106CE000A0F11C0052F8044B51F804EB4FF00003E4
:106CF000E4FB6E3540F8043B51F804EBE4FB6E56C0
:106D000040F8045B51F804EBE4FB6E6740F8046B59
:106D100051F804EBE4FB6E7840F8047B51F804EB87
:106D2000E4FB6E8940F8048B51F804EBE4FB6E9AA7
:106D300040F8049B51F804EBE4FB6EAB40F804AB65
:106D400051F804EBE4FB6EBCA0E8001808BCBDE8F9
:106D5000F08F002310B51C465AB2914200DC10BDE2
:106D600040F823400133F7E710B500231A465CB220
:106D7000A14203DCB2FA82F0400910BD50F8234072
:106D800001332243F3E74A11012350F8220001F0B6
:106D90001F0103FA01F108407047013910B549B2EB
:106DA000041D0A06CBB204D4013954F82120002A6C
:106DB000F7D001335BB273B103F18042013A50F86E
:106DC0002220002022B9013B00EB431318B210BD72
:106DD00052080130F6E71846F9E710B500235CB217
:106DE000A24200DC10BD51F8234040F8234001339B
:106DF000F5E710B5013A52B2130601D5002010BDD7
:106E000050F8224051F822309C4205D802F1FF325E
:106E1000F2D24FF0FF30F2E70120F0E700EB810102
:106E20000023884200D3704751F8042D43EA5203EF
:106E30000B60D307F5E770B59DF910401E46234659
:106E40000546FFF79DFD30B9224629463046FFF73B
:106E5000D0FF012807D02346324629462846BDE800
:106E60007040FFF7BDBD70BD70B59DF910401E4666
:106E700023460546FFF7B4FD38B12346324629467E
:106E80002846BDE87040FFF77BBD70BD2DE9F04F8F
:106E9000B5B004AC9DF9F8501F4681462B462046FC
:106EA000FFF7CEFD24AB29463846CDE90234FFF783
:106EB00074FFC0EB851004B2002C2646B8BF04F165
:106EC0001F06634246F3471603F01F0304F01F0832
:106ED00014A858BFC3F100083146FFF73AFFB8F1D4
:106EE000000F30B22DDD14AB002203EB8000C8F19F
:106EF000200C1346AB4219D32FB27B00019314AB85
:106F000003EB870705F1FF3834AB012603EB880854
:106F1000002C54DA34AB03EB86062A4656F8C81C1C
:106F20004846FFF75AFF35B0BDE8F08F57F82360A9
:106F300006FA08F10A4340F8042B013326FA0CF252
:106F4000D8E714AB2A46394603EB8000FFF745FF2C
:106F5000D2E70FFA82FE5AF8C83C53F82EB034AB91
:106F600003EB8202013052F8803C0B44BBEB03037D
:106F700034BF012200229B4518BF11465CF8C82C83
:106F800042F82E30019B42B29A42E2DB731A5E4213
:106F9000294614A85E41FFF741FF34AB03EB85039C
:106FA000294653F8802C58F8803C384643EAC2738F
:106FB000013C48F8803C24B2FFF730FFA8E734AB2F
:106FC0000020C6F1010C014603EB860A03EB8C0C92
:106FD000D8E730B51C4691B0054693F900306846B5
:106FE000FFF72EFDD4F8AC3069462846984711B01B
:106FF00030BD13460A46FFF7ECBF2DE9F04793F981
:10700000006092B0044689461046314615469846BF
:10701000FFF7AAFE002840F091804246494602A8A8
:10702000FFF7E7FF434602AA21460AA8FFF7D1FF70
:1070300002A908464246FFF7DCFF43462A46494676
:107040004846FFF7C6FF08F104074246294628468E
:10705000FFF7CFFF3B462A46214620460096FFF722
:10706000EAFE3B462A46294628460096FFF7E3FEFD
:107070003B462A46214628460096FFF7F5FE434642
:107080002A4621462046FFF7A4FF3B4622462146DA
:1070900028460096FFF7CFFE3B4600962A4621463B
:1070A0002046FFF7C8FE2368DB074AD533463A4639
:1070B00021462046FFF764FC314682462046FFF712
:1070C000ADFE06F18043013B54F8230040EACA704C
:1070D00044F82300424621462846FFF78AFF3B46F4
:1070E0000AAA294628460096FFF7BEFE3B460AAA92
:1070F000294628460096FFF7B7FE0AA908463B46F0
:107100002A460096FFF7B0FE43460AAA21462046CB
:10711000FFF75FFF02AA3B46104621460096FFF7A5
:10712000A3FE324629462046FFF757FE4946284629
:10713000FFF753FE02A94846FFF74FFE12B0BDE825
:10714000F08731462046FFF769FEC3E72DE9F0419D
:1071500015468AB0044688461C22002103A800F088
:1071600021FC2E1D95F9007003232A464146204636
:107170000293FFF73EFF334602AA214620460097BE
:10718000FFF772FE2B46424621462046FFF721FFBD
:107190000097334605F1840221462046FFF74BFE57
:1071A0000AB0BDE8F0810000F0B5082289B00C46B5
:1071B0000646FFF712FECB6A03930B6B04934B6BEF
:1071C00005938B6B0693CB6B0793002708236A46C6
:1071D00069466846CDE901770097FFF7D1FB0823A0
:1071E00005466A4631463046FFF7CAFB236B0393D8
:1071F000636B0493A36B0593E36B0544CDE90637FA
:107200006A46082369466846FFF7BAFB0823054427
:107210006A4631463046FFF7B3FB236A0093636A40
:107220000193A36A0293A36B0693E36B0793054450
:1072300008236A4631463046CDE904770397FFF7C5
:107240009FFB636A0093A36AA26B0193E36A0293B4
:107250000492636BE26B0393CDE90523236A0793E2
:10726000054408236A4631463046FFF789FBE36A46
:107270000093236B0193636B0293236A0693A36AC3
:107280000793054408236A4631463046CDE9047722
:107290000397FFF7A5FB236B0093636B0193A36B2D
:1072A0000293E36B0393636A0693E36A07932D1AD1
:1072B00008236A4631463046CDE90477FFF790FB54
:1072C000636B0093A36B0193E36B0293236A0393B5
:1072D000636A0493A36ACDE90537236B07932D1ADC
:1072E00008236A4631463046FFF77AFBA36B0093CA
:1072F000E36BCDE90137636A0393A36A0493E36AFE
:10730000CDE90537636B07932D1A08236A4631468A
:107310003046FFF765FB2D1A0D4C0FD435B9082206
:1073200031462046FFF765FD01280FD0082322468D
:1073300031463046FFF754FB2D1AEFE7082322466B
:1073400031463046FFF71CFB2D18F7D409B0F0BDCD
:10735000FC830700F0B5154689B01C4607460E466B
:107360001A4629466846FFF744FE23466A463946D0
:107370003846FFF72EFE23462A4669466846FFF741
:1073800028FE23466A4631463046FFF722FE09B002
:10739000F0BD2DE9F0438BB01446129D15F9046B36
:1073A00000961F46804689462B460246214602A883
:1073B000FFF75AFD02A9129A0846FFF71AFE129B20
:1073C00002AA41464046FFF704FE129B02AA21464C
:1073D0002046FFF7FEFD2B464A46394638460096C2
:1073E000FFF742FD129A394602A8FFF702FE02A9F2
:1073F0002B46424608460096FFF736FD02A92B466B
:10740000224608460096FFF72FFD2B4642462146AE
:1074100020460096FFF728FD129B22464946484623
:10742000FFF7D7FD2B4602AA414620460096FFF7FC
:107430001BFD129B224639463846FFF7CAFD2B46F4
:107440004A46394638460096FFF70EFD324602A9F5
:107450002046FFF7C2FC0BB0BDE8F0832DE9F047F2
:107460001F46B3F90230894613F11F0148BF03F1EB
:107470003E014D11D91D48BF03F10E01CC109442BD
:107480004FFA85F828BF144641460646FFF761FCCF
:1074900022464946FFF766FAB7F90220E400944213
:1074A0001FD9A41A06EB85010022C4F120058E42E3
:1074B0000ED32437424631463846FFF79AFC01285E
:1074C0000FD043463A463046BDE8F047FFF788BA4A
:1074D00051F8040D20FA04F313430B6000FA05F28F
:1074E000E5E7BDE8F08770B5036813F001060546CF
:1074F000144605D013460A460146FFF741FA0646F0
:1075000021462846FFF78AFC46B104F18042013A41
:1075100055F8223043F0004345F8223070BDF0B5F5
:107520000F46A1B006461946384615461C46FFF7D9
:107530001BFC20B13046FFF70CFC21B0F0BD224609
:1075400039466846FFF749FC294608A8FFF745FC7D
:1075500010A82146FFF7FDFB012318A81093FFF7A1
:10756000F8FB224608A96846FFF743FC28B92246E3
:1075700010A93046FFF731FCDFE7009BDA0709D49A
:1075800021466846FFF74AFC2246294610A8FFF725
:10759000AAFFE6E7089BDB0707D4214608A8FFF708
:1075A0003DFC2246294618A8F1E7002823461CDDA9
:1075B00008AA69466846FFF713FA21466846FFF7AE
:1075C0002DFC224618A910A8FFF713FC002805DAA5
:1075D00010A923462A460846FFF7D2F910A92346E8
:1075E00018AA0846FFF7FCF9CEE708A96A4608463C
:1075F000FFF7F6F9214608A8FFF710FC224610A96C
:1076000018A8FFF7F6FB002805DA18A923462A4632
:107610000846FFF7B5F918A9234610AA0846FFF750
:10762000DFF9BEE700487047F88307002DE9F04F07
:10763000EDB01F46769E0490B6F9023096F90040F0
:1076400013F11F0948BF03F13E0949F3471909F136
:10765000FF3824AB002543F828506CAB03EB8803BC
:107660004CA88A469346394696F9012043F8805C37
:1076700043F8605CFFF776F996F9012054A8B91831
:10768000FFF770F921464CA8FFF76EFB074600286C
:1076900040F02D8154A8FFF767FB0290002840F0CE
:1076A000288106F124034A464CA918460393FFF7A4
:1076B000A0FB012840F01F814A4654A90398FFF718
:1076C00098FB0128069040F016811CAD0CAF4B468C
:1076D000039A54A92846FFF722FF029B47F8283057
:1076E0005A46514638463346FFF7B8FE39463846C3
:1076F000039BCDF800902A46FFF7C8FB0DF5B8783C
:10770000039BCDF800902A464CA914A8FFF7BEFBB6
:10771000224640460499FFF760FBA30008EB030AEA
:107720000793049BA100591806F1440B5046FFF73C
:1077300054FB594634A8FFF750FBA3000BEB0301A1
:107740003CA8FFF74AFB331D414634AA2846009463
:107750000593FFF789FB534642463CA934A800969F
:10776000FFF717FE2346321D29462846FFF7D7FEAE
:107770002A46514640463346FFF7ECFD029BCDE9D1
:10778000083B049B49463846CDE90A38FFF705FB1C
:107790004946804614A8FFF700FB8045B8BF8046E5
:1077A0001FFA88F808F1FF3B0FFA8BFB5946384661
:1077B000FFF7E9FA5946071C14A818BF0127FFF77D
:1077C000E2FA002814BF022300231F430DF1200A10
:1077D00022465AF8277024A83946FFF7FEFA0DF121
:1077E000B00BA300F9185846FFF7F7FA21462846D0
:1077F000FFF7AFFAA8F10208069B2B600FFA88F892
:107800000DF1900AB8F1000F23DA2346059A2946B4
:107810002846FFF784FE33462A4659465046FFF76E
:1078200099FD4A4651460398FFF7E3FA012804D030
:107830004B46039A5046FFF7D3F8013C64B24CAA7A
:1078400023064AD5029BB3FA83F040096DB0BDE828
:10785000F08F33462A46D6F8A47059465046B847AA
:1078600041460CA8FFF78FFA4146071C14A818BF21
:107870000127FFF788FA002814BF022300231F43C3
:1078800008AB53F827701FB32246394634A8FFF7D8
:10789000A4FA079B3CA8F918FFF79FFA33462A463B
:1078A0003CA934A8FFF756FD059B009434AA514625
:1078B00044A8FFF7D9FA5B4652463CA934A8009683
:1078C000FFF767FD334644AA29462846FFF781FBA8
:1078D00008F1FF380FFA88F894E752F824105AF8A4
:1078E00024304B40029919430291013CA8E72846F5
:1078F000ACE73846AAE70298A8E7000008B5074BAE
:10790000044613B10021AFF30080054B1868836A69
:1079100003B19847204600F055F800BF0000000072
:10792000A884070070B50D4D0D4C641BA4100026F3
:10793000A64209D10B4D0C4C00F046F8641BA41074
:107940000026A64205D170BD55F8043B9847013684
:10795000EEE755F8043B98470136F2E7005A00205D
:10796000005A0020005A0020045A002030B5013986
:107970000024A24201D1002005E0035D01340D5D29
:10798000AB42F6D0581B30BD0A44914200F1FF33A0
:1079900000D1704710B511F8014B03F8014F914227
:1079A000F9D110BD02440346934200D1704703F859
:1079B000011BF9E7034613F8012B002AFBD1181A23
:1079C00001387047FEE700BFF8B500BFF8BC08BC3F
:1079D0009E467047F8B500BFF8BC08BC9E4670478D
:1079E0002E2E2F2E2E2F2E2E2F2E2E2F2E2E2F2EB2
:1079F0002E2F53444B2F6E5246355F53444B5F310D
:107A0000362E302E302F636F6D706F6E656E74730F
:107A10002F6C69627261726965732F7574696C2F5E
:107A20006170705F7574696C5F706C6174666F72A1
:107A30006D2E63002E2E2F2E2E2F2E2E2F2E2E2F1C
:107A40002E2E2F2E2E2F53444B2F6E5246355F5322
:107A5000444B5F31362E302E302F636F6D706F6E5A
:107A6000656E74732F6C69627261726965732F62DF
:107A7000616C6C6F632F6E72665F62616C6C6F63BA
:107A80002E63002E2E2F2E2E2F2E2E2F2E2E2F2E0B
:107A90002E2F2E2E2F53444B2F6E5246355F5344BC
:107AA0004B5F31362E302E302F636F6D706F6E65E9
:107AB0006E74732F6C69627261726965732F66737D
:107AC000746F726167652F6E72665F6673746F7232
:107AD0006167652E630000000010000004000000D4
